{
  "_format": "hh-sol-artifact-1",
  "contractName": "TheRareAntiquitiesToken",
  "sourceName": "contracts/TheRareAntiquitiesToken.sol",
  "abi": [
    {
      "inputs": [
        {
          "internalType": "address",
          "name": "_treasury",
          "type": "address"
        }
      ],
      "stateMutability": "nonpayable",
      "type": "constructor"
    },
    {
      "anonymous": false,
      "inputs": [
        {
          "indexed": true,
          "internalType": "address",
          "name": "owner",
          "type": "address"
        },
        {
          "indexed": true,
          "internalType": "address",
          "name": "spender",
          "type": "address"
        },
        {
          "indexed": false,
          "internalType": "uint256",
          "name": "value",
          "type": "uint256"
        }
      ],
      "name": "Approval",
      "type": "event"
    },
    {
      "anonymous": false,
      "inputs": [
        {
          "indexed": true,
          "internalType": "address",
          "name": "previousOwner",
          "type": "address"
        },
        {
          "indexed": true,
          "internalType": "address",
          "name": "newOwner",
          "type": "address"
        }
      ],
      "name": "OwnershipTransferred",
      "type": "event"
    },
    {
      "anonymous": false,
      "inputs": [
        {
          "indexed": false,
          "internalType": "address",
          "name": "account",
          "type": "address"
        }
      ],
      "name": "Paused",
      "type": "event"
    },
    {
      "anonymous": false,
      "inputs": [
        {
          "indexed": true,
          "internalType": "address",
          "name": "from",
          "type": "address"
        },
        {
          "indexed": true,
          "internalType": "address",
          "name": "to",
          "type": "address"
        },
        {
          "indexed": false,
          "internalType": "uint256",
          "name": "value",
          "type": "uint256"
        }
      ],
      "name": "Transfer",
      "type": "event"
    },
    {
      "anonymous": false,
      "inputs": [
        {
          "indexed": false,
          "internalType": "address",
          "name": "account",
          "type": "address"
        }
      ],
      "name": "Unpaused",
      "type": "event"
    },
    {
      "inputs": [
        {
          "internalType": "address",
          "name": "owner",
          "type": "address"
        },
        {
          "internalType": "address",
          "name": "spender",
          "type": "address"
        }
      ],
      "name": "allowance",
      "outputs": [
        {
          "internalType": "uint256",
          "name": "",
          "type": "uint256"
        }
      ],
      "stateMutability": "view",
      "type": "function"
    },
    {
      "inputs": [
        {
          "internalType": "address",
          "name": "spender",
          "type": "address"
        },
        {
          "internalType": "uint256",
          "name": "amount",
          "type": "uint256"
        }
      ],
      "name": "approve",
      "outputs": [
        {
          "internalType": "bool",
          "name": "",
          "type": "bool"
        }
      ],
      "stateMutability": "nonpayable",
      "type": "function"
    },
    {
      "inputs": [
        {
          "internalType": "address",
          "name": "account",
          "type": "address"
        }
      ],
      "name": "balanceOf",
      "outputs": [
        {
          "internalType": "uint256",
          "name": "",
          "type": "uint256"
        }
      ],
      "stateMutability": "view",
      "type": "function"
    },
    {
      "inputs": [
        {
          "internalType": "uint256",
          "name": "amount",
          "type": "uint256"
        }
      ],
      "name": "burn",
      "outputs": [],
      "stateMutability": "nonpayable",
      "type": "function"
    },
    {
      "inputs": [
        {
          "internalType": "address",
          "name": "account",
          "type": "address"
        },
        {
          "internalType": "uint256",
          "name": "amount",
          "type": "uint256"
        }
      ],
      "name": "burnFrom",
      "outputs": [],
      "stateMutability": "nonpayable",
      "type": "function"
    },
    {
      "inputs": [],
      "name": "decimals",
      "outputs": [
        {
          "internalType": "uint8",
          "name": "",
          "type": "uint8"
        }
      ],
      "stateMutability": "view",
      "type": "function"
    },
    {
      "inputs": [
        {
          "internalType": "address",
          "name": "spender",
          "type": "address"
        },
        {
          "internalType": "uint256",
          "name": "subtractedValue",
          "type": "uint256"
        }
      ],
      "name": "decreaseAllowance",
      "outputs": [
        {
          "internalType": "bool",
          "name": "",
          "type": "bool"
        }
      ],
      "stateMutability": "nonpayable",
      "type": "function"
    },
    {
      "inputs": [
        {
          "internalType": "address",
          "name": "spender",
          "type": "address"
        },
        {
          "internalType": "uint256",
          "name": "addedValue",
          "type": "uint256"
        }
      ],
      "name": "increaseAllowance",
      "outputs": [
        {
          "internalType": "bool",
          "name": "",
          "type": "bool"
        }
      ],
      "stateMutability": "nonpayable",
      "type": "function"
    },
    {
      "inputs": [
        {
          "internalType": "address",
          "name": "",
          "type": "address"
        }
      ],
      "name": "lastBurns",
      "outputs": [
        {
          "internalType": "uint256",
          "name": "",
          "type": "uint256"
        }
      ],
      "stateMutability": "view",
      "type": "function"
    },
    {
      "inputs": [],
      "name": "name",
      "outputs": [
        {
          "internalType": "string",
          "name": "",
          "type": "string"
        }
      ],
      "stateMutability": "view",
      "type": "function"
    },
    {
      "inputs": [],
      "name": "owner",
      "outputs": [
        {
          "internalType": "address",
          "name": "",
          "type": "address"
        }
      ],
      "stateMutability": "view",
      "type": "function"
    },
    {
      "inputs": [],
      "name": "pause",
      "outputs": [],
      "stateMutability": "nonpayable",
      "type": "function"
    },
    {
      "inputs": [],
      "name": "paused",
      "outputs": [
        {
          "internalType": "bool",
          "name": "",
          "type": "bool"
        }
      ],
      "stateMutability": "view",
      "type": "function"
    },
    {
      "inputs": [],
      "name": "renounceOwnership",
      "outputs": [],
      "stateMutability": "nonpayable",
      "type": "function"
    },
    {
      "inputs": [],
      "name": "symbol",
      "outputs": [
        {
          "internalType": "string",
          "name": "",
          "type": "string"
        }
      ],
      "stateMutability": "view",
      "type": "function"
    },
    {
      "inputs": [],
      "name": "totalSupply",
      "outputs": [
        {
          "internalType": "uint256",
          "name": "",
          "type": "uint256"
        }
      ],
      "stateMutability": "view",
      "type": "function"
    },
    {
      "inputs": [
        {
          "internalType": "address",
          "name": "recipient",
          "type": "address"
        },
        {
          "internalType": "uint256",
          "name": "amount",
          "type": "uint256"
        }
      ],
      "name": "transfer",
      "outputs": [
        {
          "internalType": "bool",
          "name": "",
          "type": "bool"
        }
      ],
      "stateMutability": "nonpayable",
      "type": "function"
    },
    {
      "inputs": [
        {
          "internalType": "address",
          "name": "sender",
          "type": "address"
        },
        {
          "internalType": "address",
          "name": "recipient",
          "type": "address"
        },
        {
          "internalType": "uint256",
          "name": "amount",
          "type": "uint256"
        }
      ],
      "name": "transferFrom",
      "outputs": [
        {
          "internalType": "bool",
          "name": "",
          "type": "bool"
        }
      ],
      "stateMutability": "nonpayable",
      "type": "function"
    },
    {
      "inputs": [
        {
          "internalType": "address",
          "name": "newOwner",
          "type": "address"
        }
      ],
      "name": "transferOwnership",
      "outputs": [],
      "stateMutability": "nonpayable",
      "type": "function"
    },
    {
      "inputs": [],
      "name": "treasury",
      "outputs": [
        {
          "internalType": "address",
          "name": "",
          "type": "address"
        }
      ],
      "stateMutability": "view",
      "type": "function"
    },
    {
      "inputs": [],
      "name": "unpause",
      "outputs": [],
      "stateMutability": "nonpayable",
      "type": "function"
    }
  ],
  "bytecode": "0x60806040523480156200001157600080fd5b5060405162002b8f38038062002b8f8339818101604052810190620000379190620004a0565b6040518060400160405280601a81526020017f546865205261726520416e74697175697469657320546f6b656e0000000000008152506040518060400160405280600381526020017f52415400000000000000000000000000000000000000000000000000000000008152508160039080519060200190620000bb929190620003d9565b508060049080519060200190620000d4929190620003d9565b5050506000600560006101000a81548160ff02191690831515021790555062000112620001066200018860201b60201c565b6200019060201b60201c565b62000140620001266200018860201b60201c565b6c064f964e68233a76f5200000006200025660201b60201c565b80600660006101000a81548173ffffffffffffffffffffffffffffffffffffffff021916908373ffffffffffffffffffffffffffffffffffffffff16021790555050620006c6565b600033905090565b6000600560019054906101000a900473ffffffffffffffffffffffffffffffffffffffff16905081600560016101000a81548173ffffffffffffffffffffffffffffffffffffffff021916908373ffffffffffffffffffffffffffffffffffffffff1602179055508173ffffffffffffffffffffffffffffffffffffffff168173ffffffffffffffffffffffffffffffffffffffff167f8be0079c531659141344cd1fd0a4f28419497f9722a3daafe3b4186f6b6457e060405160405180910390a35050565b600073ffffffffffffffffffffffffffffffffffffffff168273ffffffffffffffffffffffffffffffffffffffff161415620002c9576040517f08c379a0000000000000000000000000000000000000000000000000000000008152600401620002c09062000504565b60405180910390fd5b620002dd60008383620003cf60201b60201c565b8060026000828254620002f1919062000554565b92505081905550806000808473ffffffffffffffffffffffffffffffffffffffff1673ffffffffffffffffffffffffffffffffffffffff168152602001908152602001600020600082825462000348919062000554565b925050819055508173ffffffffffffffffffffffffffffffffffffffff16600073ffffffffffffffffffffffffffffffffffffffff167fddf252ad1be2c89b69c2b068fc378daa952ba7f163c4a11628f55a4df523b3ef83604051620003af919062000526565b60405180910390a3620003cb60008383620003d460201b60201c565b5050565b505050565b505050565b828054620003e790620005ef565b90600052602060002090601f0160209004810192826200040b576000855562000457565b82601f106200042657805160ff191683800117855562000457565b8280016001018555821562000457579182015b828111156200045657825182559160200191906001019062000439565b5b5090506200046691906200046a565b5090565b5b80821115620004855760008160009055506001016200046b565b5090565b6000815190506200049a81620006ac565b92915050565b600060208284031215620004b357600080fd5b6000620004c38482850162000489565b91505092915050565b6000620004db601f8362000543565b9150620004e88262000683565b602082019050919050565b620004fe81620005e5565b82525050565b600060208201905081810360008301526200051f81620004cc565b9050919050565b60006020820190506200053d6000830184620004f3565b92915050565b600082825260208201905092915050565b60006200056182620005e5565b91506200056e83620005e5565b9250827fffffffffffffffffffffffffffffffffffffffffffffffffffffffffffffffff03821115620005a657620005a562000625565b5b828201905092915050565b6000620005be82620005c5565b9050919050565b600073ffffffffffffffffffffffffffffffffffffffff82169050919050565b6000819050919050565b600060028204905060018216806200060857607f821691505b602082108114156200061f576200061e62000654565b5b50919050565b7f4e487b7100000000000000000000000000000000000000000000000000000000600052601160045260246000fd5b7f4e487b7100000000000000000000000000000000000000000000000000000000600052602260045260246000fd5b7f45524332303a206d696e7420746f20746865207a65726f206164647265737300600082015250565b620006b781620005b1565b8114620006c357600080fd5b50565b6124b980620006d66000396000f3fe608060405234801561001057600080fd5b50600436106101375760003560e01c806370a08231116100b85780638da5cb5b1161007c5780638da5cb5b1461031857806395d89b4114610336578063a457c2d714610354578063a9059cbb14610384578063dd62ed3e146103b4578063f2fde38b146103e457610137565b806370a0823114610288578063715018a6146102b857806379cc6790146102c25780638456cb59146102de5780638d6e2c36146102e857610137565b806339509351116100ff57806339509351146101f65780633f4ba83a1461022657806342966c68146102305780635c975abb1461024c57806361d027b31461026a57610137565b806306fdde031461013c578063095ea7b31461015a57806318160ddd1461018a57806323b872dd146101a8578063313ce567146101d8575b600080fd5b610144610400565b6040516101519190611bd4565b60405180910390f35b610174600480360381019061016f91906118da565b610492565b6040516101819190611bb9565b60405180910390f35b6101926104b0565b60405161019f9190611db6565b60405180910390f35b6101c260048036038101906101bd919061188b565b6104ba565b6040516101cf9190611bb9565b60405180910390f35b6101e06105b2565b6040516101ed9190611dd1565b60405180910390f35b610210600480360381019061020b91906118da565b6105bb565b60405161021d9190611bb9565b60405180910390f35b61022e610667565b005b61024a60048036038101906102459190611916565b6106ed565b005b610254610701565b6040516102619190611bb9565b60405180910390f35b610272610718565b60405161027f9190611b9e565b60405180910390f35b6102a2600480360381019061029d9190611826565b61073e565b6040516102af9190611db6565b60405180910390f35b6102c0610786565b005b6102dc60048036038101906102d791906118da565b61080e565b005b6102e6610889565b005b61030260048036038101906102fd9190611826565b61090f565b60405161030f9190611db6565b60405180910390f35b610320610927565b60405161032d9190611b9e565b60405180910390f35b61033e610951565b60405161034b9190611bd4565b60405180910390f35b61036e600480360381019061036991906118da565b6109e3565b60405161037b9190611bb9565b60405180910390f35b61039e600480360381019061039991906118da565b610ace565b6040516103ab9190611bb9565b60405180910390f35b6103ce60048036038101906103c9919061184f565b610de5565b6040516103db9190611db6565b60405180910390f35b6103fe60048036038101906103f99190611826565b610e6c565b005b60606003805461040f90611fa5565b80601f016020809104026020016040519081016040528092919081815260200182805461043b90611fa5565b80156104885780601f1061045d57610100808354040283529160200191610488565b820191906000526020600020905b81548152906001019060200180831161046b57829003601f168201915b5050505050905090565b60006104a661049f610f64565b8484610f6c565b6001905092915050565b6000600254905090565b60006104c7848484611137565b6000600160008673ffffffffffffffffffffffffffffffffffffffff1673ffffffffffffffffffffffffffffffffffffffff1681526020019081526020016000206000610512610f64565b73ffffffffffffffffffffffffffffffffffffffff1673ffffffffffffffffffffffffffffffffffffffff16815260200190815260200160002054905082811015610592576040517f08c379a000000000000000000000000000000000000000000000000000000000815260040161058990611cd6565b60405180910390fd5b6105a68561059e610f64565b858403610f6c565b60019150509392505050565b60006012905090565b600061065d6105c8610f64565b8484600160006105d6610f64565b73ffffffffffffffffffffffffffffffffffffffff1673ffffffffffffffffffffffffffffffffffffffff16815260200190815260200160002060008873ffffffffffffffffffffffffffffffffffffffff1673ffffffffffffffffffffffffffffffffffffffff168152602001908152602001600020546106589190611e08565b610f6c565b6001905092915050565b61066f610f64565b73ffffffffffffffffffffffffffffffffffffffff1661068d610927565b73ffffffffffffffffffffffffffffffffffffffff16146106e3576040517f08c379a00000000000000000000000000000000000000000000000000000000081526004016106da90611cf6565b60405180910390fd5b6106eb6113b8565b565b6106fe6106f8610f64565b8261145a565b50565b6000600560009054906101000a900460ff16905090565b600660009054906101000a900473ffffffffffffffffffffffffffffffffffffffff1681565b60008060008373ffffffffffffffffffffffffffffffffffffffff1673ffffffffffffffffffffffffffffffffffffffff168152602001908152602001600020549050919050565b61078e610f64565b73ffffffffffffffffffffffffffffffffffffffff166107ac610927565b73ffffffffffffffffffffffffffffffffffffffff1614610802576040517f08c379a00000000000000000000000000000000000000000000000000000000081526004016107f990611cf6565b60405180910390fd5b61080c6000611631565b565b60006108218361081c610f64565b610de5565b905081811015610866576040517f08c379a000000000000000000000000000000000000000000000000000000000815260040161085d90611d16565b60405180910390fd5b61087a83610872610f64565b848403610f6c565b610884838361145a565b505050565b610891610f64565b73ffffffffffffffffffffffffffffffffffffffff166108af610927565b73ffffffffffffffffffffffffffffffffffffffff1614610905576040517f08c379a00000000000000000000000000000000000000000000000000000000081526004016108fc90611cf6565b60405180910390fd5b61090d6116f7565b565b60076020528060005260406000206000915090505481565b6000600560019054906101000a900473ffffffffffffffffffffffffffffffffffffffff16905090565b60606004805461096090611fa5565b80601f016020809104026020016040519081016040528092919081815260200182805461098c90611fa5565b80156109d95780601f106109ae576101008083540402835291602001916109d9565b820191906000526020600020905b8154815290600101906020018083116109bc57829003601f168201915b5050505050905090565b600080600160006109f2610f64565b73ffffffffffffffffffffffffffffffffffffffff1673ffffffffffffffffffffffffffffffffffffffff16815260200190815260200160002060008573ffffffffffffffffffffffffffffffffffffffff1673ffffffffffffffffffffffffffffffffffffffff16815260200190815260200160002054905082811015610aaf576040517f08c379a0000000000000000000000000000000000000000000000000000000008152600401610aa690611d96565b60405180910390fd5b610ac3610aba610f64565b85858403610f6c565b600191505092915050565b600033836000600760008473ffffffffffffffffffffffffffffffffffffffff1673ffffffffffffffffffffffffffffffffffffffff168152602001908152602001600020541415610b5f5742600760008473ffffffffffffffffffffffffffffffffffffffff1673ffffffffffffffffffffffffffffffffffffffff168152602001908152602001600020819055505b6000600760008373ffffffffffffffffffffffffffffffffffffffff1673ffffffffffffffffffffffffffffffffffffffff168152602001908152602001600020541415610bec5742600760008373ffffffffffffffffffffffffffffffffffffffff1673ffffffffffffffffffffffffffffffffffffffff168152602001908152602001600020819055505b6000610c686014610c5a62f29400610c4c600760008973ffffffffffffffffffffffffffffffffffffffff1673ffffffffffffffffffffffffffffffffffffffff168152602001908152602001600020544261179a90919063ffffffff16565b6117b090919063ffffffff16565b6117c690919063ffffffff16565b90506000811115610d09576000610ca36064610c9584610c878861073e565b6117c690919063ffffffff16565b6117b090919063ffffffff16565b9050610cae816106ed565b610cc462f29400426117dc90919063ffffffff16565b600760008673ffffffffffffffffffffffffffffffffffffffff1673ffffffffffffffffffffffffffffffffffffffff16815260200190815260200160002081905550505b610d11610701565b15610d51576040517f08c379a0000000000000000000000000000000000000000000000000000000008152600401610d4890611cb6565b60405180910390fd5b6000610d7a6064610d6c6003896117c690919063ffffffff16565b6117b090919063ffffffff16565b9050610d8f818761179a90919063ffffffff16565b9550610dc5610d9c610f64565b600660009054906101000a900473ffffffffffffffffffffffffffffffffffffffff1683611137565b610dd7610dd0610f64565b8888611137565b600194505050505092915050565b6000600160008473ffffffffffffffffffffffffffffffffffffffff1673ffffffffffffffffffffffffffffffffffffffff16815260200190815260200160002060008373ffffffffffffffffffffffffffffffffffffffff1673ffffffffffffffffffffffffffffffffffffffff16815260200190815260200160002054905092915050565b610e74610f64565b73ffffffffffffffffffffffffffffffffffffffff16610e92610927565b73ffffffffffffffffffffffffffffffffffffffff1614610ee8576040517f08c379a0000000000000000000000000000000000000000000000000000000008152600401610edf90611cf6565b60405180910390fd5b600073ffffffffffffffffffffffffffffffffffffffff168173ffffffffffffffffffffffffffffffffffffffff161415610f58576040517f08c379a0000000000000000000000000000000000000000000000000000000008152600401610f4f90611c56565b60405180910390fd5b610f6181611631565b50565b600033905090565b600073ffffffffffffffffffffffffffffffffffffffff168373ffffffffffffffffffffffffffffffffffffffff161415610fdc576040517f08c379a0000000000000000000000000000000000000000000000000000000008152600401610fd390611d76565b60405180910390fd5b600073ffffffffffffffffffffffffffffffffffffffff168273ffffffffffffffffffffffffffffffffffffffff16141561104c576040517f08c379a000000000000000000000000000000000000000000000000000000000815260040161104390611c76565b60405180910390fd5b80600160008573ffffffffffffffffffffffffffffffffffffffff1673ffffffffffffffffffffffffffffffffffffffff16815260200190815260200160002060008473ffffffffffffffffffffffffffffffffffffffff1673ffffffffffffffffffffffffffffffffffffffff168152602001908152602001600020819055508173ffffffffffffffffffffffffffffffffffffffff168373ffffffffffffffffffffffffffffffffffffffff167f8c5be1e5ebec7d5bd14f71427d1e84f3dd0314c0f7b2291e5b200ac8c7c3b9258360405161112a9190611db6565b60405180910390a3505050565b600073ffffffffffffffffffffffffffffffffffffffff168373ffffffffffffffffffffffffffffffffffffffff1614156111a7576040517f08c379a000000000000000000000000000000000000000000000000000000000815260040161119e90611d56565b60405180910390fd5b600073ffffffffffffffffffffffffffffffffffffffff168273ffffffffffffffffffffffffffffffffffffffff161415611217576040517f08c379a000000000000000000000000000000000000000000000000000000000815260040161120e90611bf6565b60405180910390fd5b6112228383836117f2565b60008060008573ffffffffffffffffffffffffffffffffffffffff1673ffffffffffffffffffffffffffffffffffffffff168152602001908152602001600020549050818110156112a8576040517f08c379a000000000000000000000000000000000000000000000000000000000815260040161129f90611c96565b60405180910390fd5b8181036000808673ffffffffffffffffffffffffffffffffffffffff1673ffffffffffffffffffffffffffffffffffffffff16815260200190815260200160002081905550816000808573ffffffffffffffffffffffffffffffffffffffff1673ffffffffffffffffffffffffffffffffffffffff168152602001908152602001600020600082825461133b9190611e08565b925050819055508273ffffffffffffffffffffffffffffffffffffffff168473ffffffffffffffffffffffffffffffffffffffff167fddf252ad1be2c89b69c2b068fc378daa952ba7f163c4a11628f55a4df523b3ef8460405161139f9190611db6565b60405180910390a36113b28484846117f7565b50505050565b6113c0610701565b6113ff576040517f08c379a00000000000000000000000000000000000000000000000000000000081526004016113f690611c16565b60405180910390fd5b6000600560006101000a81548160ff0219169083151502179055507f5db9ee0a495bf2e6ff9c91a7834c1ba4fdd244a5e8aa4e537bd38aeae4b073aa611443610f64565b6040516114509190611b9e565b60405180910390a1565b600073ffffffffffffffffffffffffffffffffffffffff168273ffffffffffffffffffffffffffffffffffffffff1614156114ca576040517f08c379a00000000000000000000000000000000000000000000000000000000081526004016114c190611d36565b60405180910390fd5b6114d6826000836117f2565b60008060008473ffffffffffffffffffffffffffffffffffffffff1673ffffffffffffffffffffffffffffffffffffffff1681526020019081526020016000205490508181101561155c576040517f08c379a000000000000000000000000000000000000000000000000000000000815260040161155390611c36565b60405180910390fd5b8181036000808573ffffffffffffffffffffffffffffffffffffffff1673ffffffffffffffffffffffffffffffffffffffff1681526020019081526020016000208190555081600260008282546115b39190611ee9565b92505081905550600073ffffffffffffffffffffffffffffffffffffffff168373ffffffffffffffffffffffffffffffffffffffff167fddf252ad1be2c89b69c2b068fc378daa952ba7f163c4a11628f55a4df523b3ef846040516116189190611db6565b60405180910390a361162c836000846117f7565b505050565b6000600560019054906101000a900473ffffffffffffffffffffffffffffffffffffffff16905081600560016101000a81548173ffffffffffffffffffffffffffffffffffffffff021916908373ffffffffffffffffffffffffffffffffffffffff1602179055508173ffffffffffffffffffffffffffffffffffffffff168173ffffffffffffffffffffffffffffffffffffffff167f8be0079c531659141344cd1fd0a4f28419497f9722a3daafe3b4186f6b6457e060405160405180910390a35050565b6116ff610701565b1561173f576040517f08c379a000000000000000000000000000000000000000000000000000000000815260040161173690611cb6565b60405180910390fd5b6001600560006101000a81548160ff0219169083151502179055507f62e78cea01bee320cd4e420270b5ea74000d11b0c9f74754ebdbfc544b05a258611783610f64565b6040516117909190611b9e565b60405180910390a1565b600081836117a89190611ee9565b905092915050565b600081836117be9190611e5e565b905092915050565b600081836117d49190611e8f565b905092915050565b600081836117ea9190611e08565b905092915050565b505050565b505050565b60008135905061180b81612455565b92915050565b6000813590506118208161246c565b92915050565b60006020828403121561183857600080fd5b6000611846848285016117fc565b91505092915050565b6000806040838503121561186257600080fd5b6000611870858286016117fc565b9250506020611881858286016117fc565b9150509250929050565b6000806000606084860312156118a057600080fd5b60006118ae868287016117fc565b93505060206118bf868287016117fc565b92505060406118d086828701611811565b9150509250925092565b600080604083850312156118ed57600080fd5b60006118fb858286016117fc565b925050602061190c85828601611811565b9150509250929050565b60006020828403121561192857600080fd5b600061193684828501611811565b91505092915050565b61194881611f1d565b82525050565b61195781611f2f565b82525050565b600061196882611dec565b6119728185611df7565b9350611982818560208601611f72565b61198b81612064565b840191505092915050565b60006119a3602383611df7565b91506119ae82612075565b604082019050919050565b60006119c6601483611df7565b91506119d1826120c4565b602082019050919050565b60006119e9602283611df7565b91506119f4826120ed565b604082019050919050565b6000611a0c602683611df7565b9150611a178261213c565b604082019050919050565b6000611a2f602283611df7565b9150611a3a8261218b565b604082019050919050565b6000611a52602683611df7565b9150611a5d826121da565b604082019050919050565b6000611a75601083611df7565b9150611a8082612229565b602082019050919050565b6000611a98602883611df7565b9150611aa382612252565b604082019050919050565b6000611abb602083611df7565b9150611ac6826122a1565b602082019050919050565b6000611ade602483611df7565b9150611ae9826122ca565b604082019050919050565b6000611b01602183611df7565b9150611b0c82612319565b604082019050919050565b6000611b24602583611df7565b9150611b2f82612368565b604082019050919050565b6000611b47602483611df7565b9150611b52826123b7565b604082019050919050565b6000611b6a602583611df7565b9150611b7582612406565b604082019050919050565b611b8981611f5b565b82525050565b611b9881611f65565b82525050565b6000602082019050611bb3600083018461193f565b92915050565b6000602082019050611bce600083018461194e565b92915050565b60006020820190508181036000830152611bee818461195d565b905092915050565b60006020820190508181036000830152611c0f81611996565b9050919050565b60006020820190508181036000830152611c2f816119b9565b9050919050565b60006020820190508181036000830152611c4f816119dc565b9050919050565b60006020820190508181036000830152611c6f816119ff565b9050919050565b60006020820190508181036000830152611c8f81611a22565b9050919050565b60006020820190508181036000830152611caf81611a45565b9050919050565b60006020820190508181036000830152611ccf81611a68565b9050919050565b60006020820190508181036000830152611cef81611a8b565b9050919050565b60006020820190508181036000830152611d0f81611aae565b9050919050565b60006020820190508181036000830152611d2f81611ad1565b9050919050565b60006020820190508181036000830152611d4f81611af4565b9050919050565b60006020820190508181036000830152611d6f81611b17565b9050919050565b60006020820190508181036000830152611d8f81611b3a565b9050919050565b60006020820190508181036000830152611daf81611b5d565b9050919050565b6000602082019050611dcb6000830184611b80565b92915050565b6000602082019050611de66000830184611b8f565b92915050565b600081519050919050565b600082825260208201905092915050565b6000611e1382611f5b565b9150611e1e83611f5b565b9250827fffffffffffffffffffffffffffffffffffffffffffffffffffffffffffffffff03821115611e5357611e52611fd7565b5b828201905092915050565b6000611e6982611f5b565b9150611e7483611f5b565b925082611e8457611e83612006565b5b828204905092915050565b6000611e9a82611f5b565b9150611ea583611f5b565b9250817fffffffffffffffffffffffffffffffffffffffffffffffffffffffffffffffff0483118215151615611ede57611edd611fd7565b5b828202905092915050565b6000611ef482611f5b565b9150611eff83611f5b565b925082821015611f1257611f11611fd7565b5b828203905092915050565b6000611f2882611f3b565b9050919050565b60008115159050919050565b600073ffffffffffffffffffffffffffffffffffffffff82169050919050565b6000819050919050565b600060ff82169050919050565b60005b83811015611f90578082015181840152602081019050611f75565b83811115611f9f576000848401525b50505050565b60006002820490506001821680611fbd57607f821691505b60208210811415611fd157611fd0612035565b5b50919050565b7f4e487b7100000000000000000000000000000000000000000000000000000000600052601160045260246000fd5b7f4e487b7100000000000000000000000000000000000000000000000000000000600052601260045260246000fd5b7f4e487b7100000000000000000000000000000000000000000000000000000000600052602260045260246000fd5b6000601f19601f8301169050919050565b7f45524332303a207472616e7366657220746f20746865207a65726f206164647260008201527f6573730000000000000000000000000000000000000000000000000000000000602082015250565b7f5061757361626c653a206e6f7420706175736564000000000000000000000000600082015250565b7f45524332303a206275726e20616d6f756e7420657863656564732062616c616e60008201527f6365000000000000000000000000000000000000000000000000000000000000602082015250565b7f4f776e61626c653a206e6577206f776e657220697320746865207a65726f206160008201527f6464726573730000000000000000000000000000000000000000000000000000602082015250565b7f45524332303a20617070726f766520746f20746865207a65726f20616464726560008201527f7373000000000000000000000000000000000000000000000000000000000000602082015250565b7f45524332303a207472616e7366657220616d6f756e742065786365656473206260008201527f616c616e63650000000000000000000000000000000000000000000000000000602082015250565b7f5061757361626c653a2070617573656400000000000000000000000000000000600082015250565b7f45524332303a207472616e7366657220616d6f756e742065786365656473206160008201527f6c6c6f77616e6365000000000000000000000000000000000000000000000000602082015250565b7f4f776e61626c653a2063616c6c6572206973206e6f7420746865206f776e6572600082015250565b7f45524332303a206275726e20616d6f756e74206578636565647320616c6c6f7760008201527f616e636500000000000000000000000000000000000000000000000000000000602082015250565b7f45524332303a206275726e2066726f6d20746865207a65726f2061646472657360008201527f7300000000000000000000000000000000000000000000000000000000000000602082015250565b7f45524332303a207472616e736665722066726f6d20746865207a65726f20616460008201527f6472657373000000000000000000000000000000000000000000000000000000602082015250565b7f45524332303a20617070726f76652066726f6d20746865207a65726f2061646460008201527f7265737300000000000000000000000000000000000000000000000000000000602082015250565b7f45524332303a2064656372656173656420616c6c6f77616e63652062656c6f7760008201527f207a65726f000000000000000000000000000000000000000000000000000000602082015250565b61245e81611f1d565b811461246957600080fd5b50565b61247581611f5b565b811461248057600080fd5b5056fea26469706673582212206d6ed77c1fc0c4a1657ecef6ffb3ab3369a9a2c18e78a7edc97e2b2824fcd4f364736f6c63430008020033",
  "linkReferences": {},
  "deployedLinkReferences": {}
}