{
  "_format": "hh-sol-artifact-1",
  "contractName": "Crowdsale",
  "sourceName": "contracts/Crowdsale.sol",
  "abi": [
    {
      "inputs": [
        {
          "internalType": "uint256",
          "name": "tokenRate",
          "type": "uint256"
        },
        {
          "internalType": "contract IERC20",
          "name": "crowdsaleToken",
          "type": "address"
        },
        {
          "internalType": "address payable",
          "name": "walletAddress",
          "type": "address"
        },
        {
          "internalType": "address",
          "name": "router",
          "type": "address"
        }
      ],
      "stateMutability": "nonpayable",
      "type": "constructor"
    },
    {
      "anonymous": false,
      "inputs": [
        {
          "indexed": true,
          "internalType": "address",
          "name": "account",
          "type": "address"
        },
        {
          "indexed": false,
          "internalType": "bool",
          "name": "isBlacklisted",
          "type": "bool"
        }
      ],
      "name": "Blacklisted",
      "type": "event"
    },
    {
      "anonymous": false,
      "inputs": [],
      "name": "Closed",
      "type": "event"
    },
    {
      "anonymous": false,
      "inputs": [
        {
          "indexed": false,
          "internalType": "string",
          "name": "text",
          "type": "string"
        }
      ],
      "name": "EthRefunded",
      "type": "event"
    },
    {
      "anonymous": false,
      "inputs": [
        {
          "indexed": true,
          "internalType": "address",
          "name": "previousOwner",
          "type": "address"
        },
        {
          "indexed": true,
          "internalType": "address",
          "name": "newOwner",
          "type": "address"
        }
      ],
      "name": "OwnershipTransferred",
      "type": "event"
    },
    {
      "anonymous": false,
      "inputs": [
        {
          "indexed": true,
          "internalType": "address",
          "name": "beneficiary",
          "type": "address"
        },
        {
          "indexed": false,
          "internalType": "uint256",
          "name": "weiAmount",
          "type": "uint256"
        }
      ],
      "name": "Refunded",
      "type": "event"
    },
    {
      "anonymous": false,
      "inputs": [],
      "name": "RefundsEnabled",
      "type": "event"
    },
    {
      "anonymous": false,
      "inputs": [
        {
          "indexed": true,
          "internalType": "address",
          "name": "purchaser",
          "type": "address"
        },
        {
          "indexed": true,
          "internalType": "address",
          "name": "beneficiary",
          "type": "address"
        },
        {
          "indexed": false,
          "internalType": "uint256",
          "name": "value",
          "type": "uint256"
        },
        {
          "indexed": false,
          "internalType": "uint256",
          "name": "amount",
          "type": "uint256"
        }
      ],
      "name": "TokensPurchased",
      "type": "event"
    },
    {
      "anonymous": false,
      "inputs": [
        {
          "indexed": true,
          "internalType": "address",
          "name": "account",
          "type": "address"
        },
        {
          "indexed": false,
          "internalType": "bool",
          "name": "isWhitelisted",
          "type": "bool"
        }
      ],
      "name": "Whitelisted",
      "type": "event"
    },
    {
      "inputs": [
        {
          "internalType": "address",
          "name": "_address",
          "type": "address"
        }
      ],
      "name": "addBlacklist",
      "outputs": [],
      "stateMutability": "nonpayable",
      "type": "function"
    },
    {
      "inputs": [
        {
          "internalType": "address",
          "name": "_address",
          "type": "address"
        }
      ],
      "name": "addWhitelist",
      "outputs": [],
      "stateMutability": "nonpayable",
      "type": "function"
    },
    {
      "inputs": [
        {
          "internalType": "address",
          "name": "_address",
          "type": "address"
        }
      ],
      "name": "blacklisted",
      "outputs": [
        {
          "internalType": "bool",
          "name": "",
          "type": "bool"
        }
      ],
      "stateMutability": "view",
      "type": "function"
    },
    {
      "inputs": [
        {
          "internalType": "address",
          "name": "beneficiary",
          "type": "address"
        }
      ],
      "name": "buyTokens",
      "outputs": [],
      "stateMutability": "payable",
      "type": "function"
    },
    {
      "inputs": [
        {
          "internalType": "address",
          "name": "",
          "type": "address"
        }
      ],
      "name": "deposited",
      "outputs": [
        {
          "internalType": "uint256",
          "name": "",
          "type": "uint256"
        }
      ],
      "stateMutability": "view",
      "type": "function"
    },
    {
      "inputs": [],
      "name": "finish",
      "outputs": [],
      "stateMutability": "nonpayable",
      "type": "function"
    },
    {
      "inputs": [],
      "name": "getCurrentStage",
      "outputs": [
        {
          "internalType": "uint256",
          "name": "",
          "type": "uint256"
        }
      ],
      "stateMutability": "view",
      "type": "function"
    },
    {
      "inputs": [],
      "name": "hasEnded",
      "outputs": [
        {
          "internalType": "bool",
          "name": "",
          "type": "bool"
        }
      ],
      "stateMutability": "view",
      "type": "function"
    },
    {
      "inputs": [],
      "name": "owner",
      "outputs": [
        {
          "internalType": "address",
          "name": "",
          "type": "address"
        }
      ],
      "stateMutability": "view",
      "type": "function"
    },
    {
      "inputs": [],
      "name": "rate",
      "outputs": [
        {
          "internalType": "uint256",
          "name": "",
          "type": "uint256"
        }
      ],
      "stateMutability": "view",
      "type": "function"
    },
    {
      "inputs": [
        {
          "internalType": "address",
          "name": "_address",
          "type": "address"
        }
      ],
      "name": "removeBlacklist",
      "outputs": [],
      "stateMutability": "nonpayable",
      "type": "function"
    },
    {
      "inputs": [
        {
          "internalType": "address",
          "name": "_address",
          "type": "address"
        }
      ],
      "name": "removeWhitelist",
      "outputs": [],
      "stateMutability": "nonpayable",
      "type": "function"
    },
    {
      "inputs": [],
      "name": "renounceOwnership",
      "outputs": [],
      "stateMutability": "nonpayable",
      "type": "function"
    },
    {
      "inputs": [
        {
          "internalType": "uint256",
          "name": "value",
          "type": "uint256"
        }
      ],
      "name": "setCrowdsaleStage",
      "outputs": [],
      "stateMutability": "nonpayable",
      "type": "function"
    },
    {
      "inputs": [],
      "name": "stage",
      "outputs": [
        {
          "internalType": "enum Crowdsale.CrowdsaleStage",
          "name": "",
          "type": "uint8"
        }
      ],
      "stateMutability": "view",
      "type": "function"
    },
    {
      "inputs": [],
      "name": "state",
      "outputs": [
        {
          "internalType": "enum Crowdsale.State",
          "name": "",
          "type": "uint8"
        }
      ],
      "stateMutability": "view",
      "type": "function"
    },
    {
      "inputs": [],
      "name": "token",
      "outputs": [
        {
          "internalType": "contract IERC20",
          "name": "",
          "type": "address"
        }
      ],
      "stateMutability": "view",
      "type": "function"
    },
    {
      "inputs": [
        {
          "internalType": "address",
          "name": "newOwner",
          "type": "address"
        }
      ],
      "name": "transferOwnership",
      "outputs": [],
      "stateMutability": "nonpayable",
      "type": "function"
    },
    {
      "inputs": [],
      "name": "uniswapV2Router",
      "outputs": [
        {
          "internalType": "contract IUniswapV2Router02",
          "name": "",
          "type": "address"
        }
      ],
      "stateMutability": "view",
      "type": "function"
    },
    {
      "inputs": [],
      "name": "wallet",
      "outputs": [
        {
          "internalType": "address payable",
          "name": "",
          "type": "address"
        }
      ],
      "stateMutability": "view",
      "type": "function"
    },
    {
      "inputs": [],
      "name": "weiRaised",
      "outputs": [
        {
          "internalType": "uint256",
          "name": "",
          "type": "uint256"
        }
      ],
      "stateMutability": "view",
      "type": "function"
    },
    {
      "inputs": [
        {
          "internalType": "address",
          "name": "_address",
          "type": "address"
        }
      ],
      "name": "whitelisted",
      "outputs": [
        {
          "internalType": "bool",
          "name": "",
          "type": "bool"
        }
      ],
      "stateMutability": "view",
      "type": "function"
    },
    {
      "stateMutability": "payable",
      "type": "receive"
    }
  ],
  "bytecode": "0x60a0604052683635c9adc5dea00000600b556000600d60006101000a81548160ff021916908360018111156200005e577f4e487b7100000000000000000000000000000000000000000000000000000000600052602160045260246000fd5b02179055506000600d60016101000a81548160ff02191690836002811115620000b0577f4e487b7100000000000000000000000000000000000000000000000000000000600052602160045260246000fd5b02179055506361170780600e556361288d70600f556bf2568bc2d21591d7f80000006010556361297c806011556361525b006012556c046ae936e27f0f5345300000006013553480156200010357600080fd5b5060405162003f3938038062003f39833981810160405281019062000129919062000477565b600160008190555062000151620001456200034d60201b60201c565b6200035560201b60201c565b6000841162000197576040517f08c379a00000000000000000000000000000000000000000000000000000000081526004016200018e9062000531565b60405180910390fd5b600073ffffffffffffffffffffffffffffffffffffffff168273ffffffffffffffffffffffffffffffffffffffff1614156200020a576040517f08c379a0000000000000000000000000000000000000000000000000000000008152600401620002019062000553565b60405180910390fd5b600073ffffffffffffffffffffffffffffffffffffffff168373ffffffffffffffffffffffffffffffffffffffff1614156200027d576040517f08c379a0000000000000000000000000000000000000000000000000000000008152600401620002749062000553565b60405180910390fd5b8360068190555081600560006101000a81548173ffffffffffffffffffffffffffffffffffffffff021916908373ffffffffffffffffffffffffffffffffffffffff16021790555082600460006101000a81548173ffffffffffffffffffffffffffffffffffffffff021916908373ffffffffffffffffffffffffffffffffffffffff16021790555060008190508073ffffffffffffffffffffffffffffffffffffffff1660808173ffffffffffffffffffffffffffffffffffffffff1660601b815250505050505050620006a6565b600033905090565b6000600160009054906101000a900473ffffffffffffffffffffffffffffffffffffffff16905081600160006101000a81548173ffffffffffffffffffffffffffffffffffffffff021916908373ffffffffffffffffffffffffffffffffffffffff1602179055508173ffffffffffffffffffffffffffffffffffffffff168173ffffffffffffffffffffffffffffffffffffffff167f8be0079c531659141344cd1fd0a4f28419497f9722a3daafe3b4186f6b6457e060405160405180910390a35050565b6000815190506200042c816200063e565b92915050565b600081519050620004438162000658565b92915050565b6000815190506200045a8162000672565b92915050565b60008151905062000471816200068c565b92915050565b600080600080608085870312156200048e57600080fd5b60006200049e8782880162000460565b9450506020620004b18782880162000449565b9350506040620004c48782880162000432565b9250506060620004d7878288016200041b565b91505092959194509250565b6000620004f260178362000575565b9150620004ff82620005ec565b602082019050919050565b60006200051960178362000575565b9150620005268262000615565b602082019050919050565b600060208201905081810360008301526200054c81620004e3565b9050919050565b600060208201905081810360008301526200056e816200050a565b9050919050565b600082825260208201905092915050565b60006200059382620005c2565b9050919050565b6000620005a782620005c2565b9050919050565b6000620005bb8262000586565b9050919050565b600073ffffffffffffffffffffffffffffffffffffffff82169050919050565b6000819050919050565b7f43726f776473616c653a20494e56414c49445f52415445000000000000000000600082015250565b7f43726f776473616c653a205a45524f5f41444452455353000000000000000000600082015250565b620006498162000586565b81146200065557600080fd5b50565b62000663816200059a565b81146200066f57600080fd5b50565b6200067d81620005ae565b81146200068957600080fd5b50565b6200069781620005e2565b8114620006a357600080fd5b50565b60805160601c613858620006e160003960008181610fe801528181611736015281816118750152818161192d01526119cb01526138586000f3fe6080604052600436106101395760003560e01c8063cb13cddb116100ab578063ec8ac4d81161006f578063ec8ac4d81461040b578063ecb70fb714610427578063eedbe31d14610452578063f2fde38b1461047d578063f80f5dd5146104a6578063fc0c546a146104cf57610150565b8063cb13cddb14610314578063d56b288914610351578063d936547e14610368578063dbac26e9146103a5578063eb91e651146103e257610150565b806378c8cda7116100fd57806378c8cda7146102185780638da5cb5b146102415780639cfe42da1461026c578063a997f82f14610295578063c040e6b8146102be578063c19d93fb146102e957610150565b80631694505e146101555780632c4e722e146101805780634042b66f146101ab578063521eb273146101d6578063715018a61461020157610150565b366101505761014e6101496104fa565b610502565b005b600080fd5b34801561016157600080fd5b5061016a610fe6565b6040516101779190612e67565b60405180910390f35b34801561018c57600080fd5b5061019561100a565b6040516101a291906130fa565b60405180910390f35b3480156101b757600080fd5b506101c0611014565b6040516101cd91906130fa565b60405180910390f35b3480156101e257600080fd5b506101eb61101e565b6040516101f89190612d46565b60405180910390f35b34801561020d57600080fd5b50610216611048565b005b34801561022457600080fd5b5061023f600480360381019061023a91906128a5565b6110d0565b005b34801561024d57600080fd5b50610256611254565b6040516102639190612d2b565b60405180910390f35b34801561027857600080fd5b50610293600480360381019061028e91906128a5565b61127e565b005b3480156102a157600080fd5b506102bc60048036038101906102b79190612920565b611402565b005b3480156102ca57600080fd5b506102d361152f565b6040516102e09190612e82565b60405180910390f35b3480156102f557600080fd5b506102fe611542565b60405161030b9190612e9d565b60405180910390f35b34801561032057600080fd5b5061033b600480360381019061033691906128a5565b611555565b60405161034891906130fa565b60405180910390f35b34801561035d57600080fd5b5061036661156d565b005b34801561037457600080fd5b5061038f600480360381019061038a91906128a5565b611db0565b60405161039c9190612e31565b60405180910390f35b3480156103b157600080fd5b506103cc60048036038101906103c791906128a5565b611e06565b6040516103d99190612e31565b60405180910390f35b3480156103ee57600080fd5b50610409600480360381019061040491906128a5565b611e5c565b005b610425600480360381019061042091906128a5565b610502565b005b34801561043357600080fd5b5061043c611fe0565b6040516104499190612e31565b60405180910390f35b34801561045e57600080fd5b50610467611fec565b60405161047491906130fa565b60405180910390f35b34801561048957600080fd5b506104a4600480360381019061049f91906128a5565b61203b565b005b3480156104b257600080fd5b506104cd60048036038101906104c891906128a5565b612133565b005b3480156104db57600080fd5b506104e46122b7565b6040516104f19190612e4c565b60405180910390f35b600033905090565b60026000541415610548576040517f08c379a000000000000000000000000000000000000000000000000000000000815260040161053f906130ba565b60405180910390fd5b600260008190555080600073ffffffffffffffffffffffffffffffffffffffff168173ffffffffffffffffffffffffffffffffffffffff1614156105c1576040517f08c379a00000000000000000000000000000000000000000000000000000000081526004016105b890612ffa565b60405180910390fd5b81600060018111156105fc577f4e487b7100000000000000000000000000000000000000000000000000000000600052602160045260246000fd5b600d60009054906101000a900460ff166001811115610644577f4e487b7100000000000000000000000000000000000000000000000000000000600052602160045260246000fd5b148015610657575061065581611db0565b155b15610697576040517f08c379a000000000000000000000000000000000000000000000000000000000815260040161068e90612f3a565b60405180910390fd5b826001808111156106d1577f4e487b7100000000000000000000000000000000000000000000000000000000600052602160045260246000fd5b600d60009054906101000a900460ff166001811115610719577f4e487b7100000000000000000000000000000000000000000000000000000000600052602160045260246000fd5b14801561072b575061072a81611e06565b5b1561076b576040517f08c379a000000000000000000000000000000000000000000000000000000000815260040161076290612eda565b60405180910390fd5b600060018111156107a5577f4e487b7100000000000000000000000000000000000000000000000000000000600052602160045260246000fd5b600d60009054906101000a900460ff1660018111156107ed577f4e487b7100000000000000000000000000000000000000000000000000000000600052602160045260246000fd5b1480156107fb5750600e5442105b1561083b576040517f08c379a000000000000000000000000000000000000000000000000000000000815260040161083290612f5a565b60405180910390fd5b60006001811115610875577f4e487b7100000000000000000000000000000000000000000000000000000000600052602160045260246000fd5b600d60009054906101000a900460ff1660018111156108bd577f4e487b7100000000000000000000000000000000000000000000000000000000600052602160045260246000fd5b1480156108cb5750600f5442115b1561090b576040517f08c379a000000000000000000000000000000000000000000000000000000000815260040161090290612efa565b60405180910390fd5b600180811115610944577f4e487b7100000000000000000000000000000000000000000000000000000000600052602160045260246000fd5b600d60009054906101000a900460ff16600181111561098c577f4e487b7100000000000000000000000000000000000000000000000000000000600052602160045260246000fd5b14801561099a575060115442105b156109da576040517f08c379a00000000000000000000000000000000000000000000000000000000081526004016109d190612fba565b60405180910390fd5b600180811115610a13577f4e487b7100000000000000000000000000000000000000000000000000000000600052602160045260246000fd5b600d60009054906101000a900460ff166001811115610a5b577f4e487b7100000000000000000000000000000000000000000000000000000000600052602160045260246000fd5b148015610a69575060125442115b15610aa9576040517f08c379a0000000000000000000000000000000000000000000000000000000008152600401610aa09061307a565b60405180910390fd5b6000349050610ab885826122e1565b6000610ac382612382565b905060006001811115610aff577f4e487b7100000000000000000000000000000000000000000000000000000000600052602160045260246000fd5b600d60009054906101000a900460ff166001811115610b47577f4e487b7100000000000000000000000000000000000000000000000000000000600052602160045260246000fd5b148015610b695750601054610b67826009546123ba90919063ffffffff16565b115b15610bf1573373ffffffffffffffffffffffffffffffffffffffff166108fc349081150290604051600060405180830381858888f19350505050158015610bb4573d6000803e3d6000fd5b507fc0283f9c45b2118c7ec26e4f4bf06fc486f94a186fb38dc5dff372d9cb709d37604051610be2906130da565b60405180910390a15050610fd8565b600180811115610c2a577f4e487b7100000000000000000000000000000000000000000000000000000000600052602160045260246000fd5b600d60009054906101000a900460ff166001811115610c72577f4e487b7100000000000000000000000000000000000000000000000000000000600052602160045260246000fd5b148015610c945750601354610c9282600a546123ba90919063ffffffff16565b115b15610d1c573373ffffffffffffffffffffffffffffffffffffffff166108fc349081150290604051600060405180830381858888f19350505050158015610cdf573d6000803e3d6000fd5b507fc0283f9c45b2118c7ec26e4f4bf06fc486f94a186fb38dc5dff372d9cb709d37604051610d0d90612f7a565b60405180910390a15050610fd8565b60006001811115610d56577f4e487b7100000000000000000000000000000000000000000000000000000000600052602160045260246000fd5b600d60009054906101000a900460ff166001811115610d9e577f4e487b7100000000000000000000000000000000000000000000000000000000600052602160045260246000fd5b1415610ddb57610db9826007546123ba90919063ffffffff16565b600781905550610dd4816009546123ba90919063ffffffff16565b6009819055505b600180811115610e14577f4e487b7100000000000000000000000000000000000000000000000000000000600052602160045260246000fd5b600d60009054906101000a900460ff166001811115610e5c577f4e487b7100000000000000000000000000000000000000000000000000000000600052602160045260246000fd5b1415610e7e57610e7781600a546123ba90919063ffffffff16565b600a819055505b610e93826008546123ba90919063ffffffff16565b6008819055506000610ec26064610eb46002856123d090919063ffffffff16565b6123e690919063ffffffff16565b9050610ed781836123fc90919063ffffffff16565b9150610f48600560009054906101000a900473ffffffffffffffffffffffffffffffffffffffff1682600460009054906101000a900473ffffffffffffffffffffffffffffffffffffffff1673ffffffffffffffffffffffffffffffffffffffff166124129092919063ffffffff16565b610f528783612498565b8673ffffffffffffffffffffffffffffffffffffffff16610f716104fa565b73ffffffffffffffffffffffffffffffffffffffff167f6faf93231a456e552dbc9961f58d9713ee4f2e69d15f1975b050ef0911053a7b8585604051610fb8929190613115565b60405180910390a3610fca87846124a6565b610fd487846124aa565b5050505b505050600160008190555050565b7f000000000000000000000000000000000000000000000000000000000000000081565b6000600654905090565b6000600854905090565b6000600560009054906101000a900473ffffffffffffffffffffffffffffffffffffffff16905090565b6110506104fa565b73ffffffffffffffffffffffffffffffffffffffff1661106e611254565b73ffffffffffffffffffffffffffffffffffffffff16146110c4576040517f08c379a00000000000000000000000000000000000000000000000000000000081526004016110bb9061303a565b60405180910390fd5b6110ce60006124ae565b565b6110d86104fa565b73ffffffffffffffffffffffffffffffffffffffff166110f6611254565b73ffffffffffffffffffffffffffffffffffffffff161461114c576040517f08c379a00000000000000000000000000000000000000000000000000000000081526004016111439061303a565b60405180910390fd5b60001515600260008373ffffffffffffffffffffffffffffffffffffffff1673ffffffffffffffffffffffffffffffffffffffff16815260200190815260200160002060009054906101000a900460ff16151514156111aa57600080fd5b6000600260008373ffffffffffffffffffffffffffffffffffffffff1673ffffffffffffffffffffffffffffffffffffffff16815260200190815260200160002060006101000a81548160ff0219169083151502179055508073ffffffffffffffffffffffffffffffffffffffff167fa54714518c5d275fdcd3d2a461e4858e4e8cb04fb93cd0bca9d6d34115f2644060006040516112499190612e31565b60405180910390a250565b6000600160009054906101000a900473ffffffffffffffffffffffffffffffffffffffff16905090565b6112866104fa565b73ffffffffffffffffffffffffffffffffffffffff166112a4611254565b73ffffffffffffffffffffffffffffffffffffffff16146112fa576040517f08c379a00000000000000000000000000000000000000000000000000000000081526004016112f19061303a565b60405180910390fd5b60011515600360008373ffffffffffffffffffffffffffffffffffffffff1673ffffffffffffffffffffffffffffffffffffffff16815260200190815260200160002060009054906101000a900460ff161515141561135857600080fd5b6001600360008373ffffffffffffffffffffffffffffffffffffffff1673ffffffffffffffffffffffffffffffffffffffff16815260200190815260200160002060006101000a81548160ff0219169083151502179055508073ffffffffffffffffffffffffffffffffffffffff167fcf3473b85df1594d47b6958f29a32bea0abff9dd68296f7bf33443646793cfd860016040516113f79190612e31565b60405180910390a250565b6000816000600181111561143f577f4e487b7100000000000000000000000000000000000000000000000000000000600052602160045260246000fd5b1415611460576000905061145b68056bc75e2d63100000612574565b6114db565b8160018081111561149a577f4e487b7100000000000000000000000000000000000000000000000000000000600052602160045260246000fd5b14156114da57600190506009546010546114b49190613251565b6013546114c19190613170565b6013819055506114d9680ad78ebc5ac6200000612574565b5b5b80600d60006101000a81548160ff02191690836001811115611526577f4e487b7100000000000000000000000000000000000000000000000000000000600052602160045260246000fd5b02179055505050565b600d60009054906101000a900460ff1681565b600d60019054906101000a900460ff1681565b600c6020528060005260406000206000915090505481565b6115756104fa565b73ffffffffffffffffffffffffffffffffffffffff16611593611254565b73ffffffffffffffffffffffffffffffffffffffff16146115e9576040517f08c379a00000000000000000000000000000000000000000000000000000000081526004016115e09061303a565b60405180910390fd5b6115f1611fe0565b611630576040517f08c379a00000000000000000000000000000000000000000000000000000000081526004016116279061307a565b60405180910390fd5b6000611703603c6116f56064600460009054906101000a900473ffffffffffffffffffffffffffffffffffffffff1673ffffffffffffffffffffffffffffffffffffffff166370a08231306040518263ffffffff1660e01b81526004016116979190612d2b565b60206040518083038186803b1580156116af57600080fd5b505afa1580156116c3573d6000803e3d6000fd5b505050506040513d601f19601f820116820180604052508101906116e79190612949565b6123d090919063ffffffff16565b6123e690919063ffffffff16565b905060006117306103e8611722610190476123d090919063ffffffff16565b6123e690919063ffffffff16565b905060007f000000000000000000000000000000000000000000000000000000000000000073ffffffffffffffffffffffffffffffffffffffff1663ad5c46486040518163ffffffff1660e01b815260040160206040518083038186803b15801561179a57600080fd5b505afa1580156117ae573d6000803e3d6000fd5b505050506040513d601f19601f820116820180604052508101906117d291906128ce565b90508073ffffffffffffffffffffffffffffffffffffffff1663d0e30db0836040518263ffffffff1660e01b81526004016000604051808303818588803b15801561181c57600080fd5b505af1158015611830573d6000803e3d6000fd5b5050505050600460009054906101000a900473ffffffffffffffffffffffffffffffffffffffff1673ffffffffffffffffffffffffffffffffffffffff1663095ea7b37f00000000000000000000000000000000000000000000000000000000000000006000196040518363ffffffff1660e01b81526004016118b4929190612e08565b602060405180830381600087803b1580156118ce57600080fd5b505af11580156118e2573d6000803e3d6000fd5b505050506040513d601f19601f8201168201806040525081019061190691906128f7565b61190f57600080fd5b8073ffffffffffffffffffffffffffffffffffffffff1663095ea7b37f00000000000000000000000000000000000000000000000000000000000000006000196040518363ffffffff1660e01b815260040161196c929190612e08565b602060405180830381600087803b15801561198657600080fd5b505af115801561199a573d6000803e3d6000fd5b505050506040513d601f19601f820116820180604052508101906119be91906128f7565b6119c757600080fd5b60007f000000000000000000000000000000000000000000000000000000000000000073ffffffffffffffffffffffffffffffffffffffff1663e8e33700600460009054906101000a900473ffffffffffffffffffffffffffffffffffffffff1684611a506064611a4260038b6123d090919063ffffffff16565b6123e690919063ffffffff16565b87600080600560009054906101000a900473ffffffffffffffffffffffffffffffffffffffff16426040518963ffffffff1660e01b8152600401611a9b989796959493929190612d8a565b606060405180830381600087803b158015611ab557600080fd5b505af1158015611ac9573d6000803e3d6000fd5b505050506040513d601f19601f82011682018060405250810190611aed9190612972565b9091509050809150508173ffffffffffffffffffffffffffffffffffffffff1663a9059cbb600560009054906101000a900473ffffffffffffffffffffffffffffffffffffffff168473ffffffffffffffffffffffffffffffffffffffff166370a08231306040518263ffffffff1660e01b8152600401611b6e9190612d2b565b60206040518083038186803b158015611b8657600080fd5b505afa158015611b9a573d6000803e3d6000fd5b505050506040513d601f19601f82011682018060405250810190611bbe9190612949565b6040518363ffffffff1660e01b8152600401611bdb929190612d61565b602060405180830381600087803b158015611bf557600080fd5b505af1158015611c09573d6000803e3d6000fd5b505050506040513d601f19601f82011682018060405250810190611c2d91906128f7565b50600460009054906101000a900473ffffffffffffffffffffffffffffffffffffffff1673ffffffffffffffffffffffffffffffffffffffff1663a9059cbb600560009054906101000a900473ffffffffffffffffffffffffffffffffffffffff16600460009054906101000a900473ffffffffffffffffffffffffffffffffffffffff1673ffffffffffffffffffffffffffffffffffffffff166370a08231306040518263ffffffff1660e01b8152600401611cea9190612d2b565b60206040518083038186803b158015611d0257600080fd5b505afa158015611d16573d6000803e3d6000fd5b505050506040513d601f19601f82011682018060405250810190611d3a9190612949565b6040518363ffffffff1660e01b8152600401611d57929190612d61565b602060405180830381600087803b158015611d7157600080fd5b505af1158015611d85573d6000803e3d6000fd5b505050506040513d601f19601f82011682018060405250810190611da991906128f7565b5050505050565b6000600260008373ffffffffffffffffffffffffffffffffffffffff1673ffffffffffffffffffffffffffffffffffffffff16815260200190815260200160002060009054906101000a900460ff169050919050565b6000600360008373ffffffffffffffffffffffffffffffffffffffff1673ffffffffffffffffffffffffffffffffffffffff16815260200190815260200160002060009054906101000a900460ff169050919050565b611e646104fa565b73ffffffffffffffffffffffffffffffffffffffff16611e82611254565b73ffffffffffffffffffffffffffffffffffffffff1614611ed8576040517f08c379a0000000000000000000000000000000000000000000000000000000008152600401611ecf9061303a565b60405180910390fd5b60001515600360008373ffffffffffffffffffffffffffffffffffffffff1673ffffffffffffffffffffffffffffffffffffffff16815260200190815260200160002060009054906101000a900460ff1615151415611f3657600080fd5b6000600360008373ffffffffffffffffffffffffffffffffffffffff1673ffffffffffffffffffffffffffffffffffffffff16815260200190815260200160002060006101000a81548160ff0219169083151502179055508073ffffffffffffffffffffffffffffffffffffffff167fcf3473b85df1594d47b6958f29a32bea0abff9dd68296f7bf33443646793cfd86000604051611fd59190612e31565b60405180910390a250565b60006012544211905090565b6000600d60009054906101000a900460ff166001811115612036577f4e487b7100000000000000000000000000000000000000000000000000000000600052602160045260246000fd5b905090565b6120436104fa565b73ffffffffffffffffffffffffffffffffffffffff16612061611254565b73ffffffffffffffffffffffffffffffffffffffff16146120b7576040517f08c379a00000000000000000000000000000000000000000000000000000000081526004016120ae9061303a565b60405180910390fd5b600073ffffffffffffffffffffffffffffffffffffffff168173ffffffffffffffffffffffffffffffffffffffff161415612127576040517f08c379a000000000000000000000000000000000000000000000000000000000815260040161211e90612f1a565b60405180910390fd5b612130816124ae565b50565b61213b6104fa565b73ffffffffffffffffffffffffffffffffffffffff16612159611254565b73ffffffffffffffffffffffffffffffffffffffff16146121af576040517f08c379a00000000000000000000000000000000000000000000000000000000081526004016121a69061303a565b60405180910390fd5b60011515600260008373ffffffffffffffffffffffffffffffffffffffff1673ffffffffffffffffffffffffffffffffffffffff16815260200190815260200160002060009054906101000a900460ff161515141561220d57600080fd5b6001600260008373ffffffffffffffffffffffffffffffffffffffff1673ffffffffffffffffffffffffffffffffffffffff16815260200190815260200160002060006101000a81548160ff0219169083151502179055508073ffffffffffffffffffffffffffffffffffffffff167fa54714518c5d275fdcd3d2a461e4858e4e8cb04fb93cd0bca9d6d34115f2644060016040516122ac9190612e31565b60405180910390a250565b6000600460009054906101000a900473ffffffffffffffffffffffffffffffffffffffff16905090565b6000811415612325576040517f08c379a000000000000000000000000000000000000000000000000000000000815260040161231c90612fda565b60405180910390fd5b600b5461233d826008546123ba90919063ffffffff16565b111561237e576040517f08c379a00000000000000000000000000000000000000000000000000000000081526004016123759061301a565b60405180910390fd5b5050565b60006123b3670de0b6b3a76400006123a5600654856123d090919063ffffffff16565b6123e690919063ffffffff16565b9050919050565b600081836123c89190613170565b905092915050565b600081836123de91906131f7565b905092915050565b600081836123f491906131c6565b905092915050565b6000818361240a9190613251565b905092915050565b6124938363a9059cbb60e01b8484604051602401612431929190612e08565b604051602081830303815290604052907bffffffffffffffffffffffffffffffffffffffffffffffffffffffff19166020820180517bffffffffffffffffffffffffffffffffffffffffffffffffffffffff838183161783525050505061257e565b505050565b6124a28282612645565b5050565b5050565b5050565b6000600160009054906101000a900473ffffffffffffffffffffffffffffffffffffffff16905081600160006101000a81548173ffffffffffffffffffffffffffffffffffffffff021916908373ffffffffffffffffffffffffffffffffffffffff1602179055508173ffffffffffffffffffffffffffffffffffffffff168173ffffffffffffffffffffffffffffffffffffffff167f8be0079c531659141344cd1fd0a4f28419497f9722a3daafe3b4186f6b6457e060405160405180910390a35050565b8060068190555050565b60006125e0826040518060400160405280602081526020017f5361666545524332303a206c6f772d6c6576656c2063616c6c206661696c65648152508573ffffffffffffffffffffffffffffffffffffffff166126969092919063ffffffff16565b9050600081511115612640578080602001905181019061260091906128f7565b61263f576040517f08c379a00000000000000000000000000000000000000000000000000000000081526004016126369061309a565b60405180910390fd5b5b505050565b6126928282600460009054906101000a900473ffffffffffffffffffffffffffffffffffffffff1673ffffffffffffffffffffffffffffffffffffffff166124129092919063ffffffff16565b5050565b60606126a584846000856126ae565b90509392505050565b6060824710156126f3576040517f08c379a00000000000000000000000000000000000000000000000000000000081526004016126ea90612f9a565b60405180910390fd5b6126fc856127c2565b61273b576040517f08c379a00000000000000000000000000000000000000000000000000000000081526004016127329061305a565b60405180910390fd5b6000808673ffffffffffffffffffffffffffffffffffffffff1685876040516127649190612d14565b60006040518083038185875af1925050503d80600081146127a1576040519150601f19603f3d011682016040523d82523d6000602084013e6127a6565b606091505b50915091506127b68282866127d5565b92505050949350505050565b600080823b905060008111915050919050565b606083156127e557829050612835565b6000835111156127f85782518084602001fd5b816040517f08c379a000000000000000000000000000000000000000000000000000000000815260040161282c9190612eb8565b60405180910390fd5b9392505050565b60008135905061284b816137dd565b92915050565b600081519050612860816137dd565b92915050565b600081519050612875816137f4565b92915050565b60008135905061288a8161380b565b92915050565b60008151905061289f8161380b565b92915050565b6000602082840312156128b757600080fd5b60006128c58482850161283c565b91505092915050565b6000602082840312156128e057600080fd5b60006128ee84828501612851565b91505092915050565b60006020828403121561290957600080fd5b600061291784828501612866565b91505092915050565b60006020828403121561293257600080fd5b60006129408482850161287b565b91505092915050565b60006020828403121561295b57600080fd5b600061296984828501612890565b91505092915050565b60008060006060848603121561298757600080fd5b600061299586828701612890565b93505060206129a686828701612890565b92505060406129b786828701612890565b9150509250925092565b6129ca81613305565b82525050565b6129d981613297565b82525050565b6129e881613285565b82525050565b6129f7816132a9565b82525050565b6000612a088261313e565b612a128185613154565b9350612a228185602086016133b9565b80840191505092915050565b612a3781613317565b82525050565b612a468161333b565b82525050565b612a558161335f565b82525050565b612a6481613371565b82525050565b612a7381613383565b82525050565b6000612a8482613149565b612a8e818561315f565b9350612a9e8185602086016133b9565b612aa781613479565b840191505092915050565b6000612abf60168361315f565b9150612aca8261348a565b602082019050919050565b6000612ae260188361315f565b9150612aed826134b3565b602082019050919050565b6000612b0560268361315f565b9150612b10826134dc565b604082019050919050565b6000612b28601a8361315f565b9150612b338261352b565b602082019050919050565b6000612b4b601e8361315f565b9150612b5682613554565b602082019050919050565b6000612b6e60118361315f565b9150612b798261357d565b602082019050919050565b6000612b9160268361315f565b9150612b9c826135a6565b604082019050919050565b6000612bb4601a8361315f565b9150612bbf826135f5565b602082019050919050565b6000612bd760168361315f565b9150612be28261361e565b602082019050919050565b6000612bfa60178361315f565b9150612c0582613647565b602082019050919050565b6000612c1d601b8361315f565b9150612c2882613670565b602082019050919050565b6000612c4060208361315f565b9150612c4b82613699565b602082019050919050565b6000612c63601d8361315f565b9150612c6e826136c2565b602082019050919050565b6000612c8660148361315f565b9150612c91826136eb565b602082019050919050565b6000612ca9602a8361315f565b9150612cb482613714565b604082019050919050565b6000612ccc601f8361315f565b9150612cd782613763565b602082019050919050565b6000612cef60148361315f565b9150612cfa8261378c565b602082019050919050565b612d0e816132fb565b82525050565b6000612d2082846129fd565b915081905092915050565b6000602082019050612d4060008301846129df565b92915050565b6000602082019050612d5b60008301846129d0565b92915050565b6000604082019050612d7660008301856129c1565b612d836020830184612d05565b9392505050565b600061010082019050612da0600083018b6129df565b612dad602083018a6129df565b612dba6040830189612d05565b612dc76060830188612d05565b612dd46080830187612a6a565b612de160a0830186612a6a565b612dee60c08301856129c1565b612dfb60e0830184612d05565b9998505050505050505050565b6000604082019050612e1d60008301856129df565b612e2a6020830184612d05565b9392505050565b6000602082019050612e4660008301846129ee565b92915050565b6000602082019050612e616000830184612a2e565b92915050565b6000602082019050612e7c6000830184612a3d565b92915050565b6000602082019050612e976000830184612a4c565b92915050565b6000602082019050612eb26000830184612a5b565b92915050565b60006020820190508181036000830152612ed28184612a79565b905092915050565b60006020820190508181036000830152612ef381612ab2565b9050919050565b60006020820190508181036000830152612f1381612ad5565b9050919050565b60006020820190508181036000830152612f3381612af8565b9050919050565b60006020820190508181036000830152612f5381612b1b565b9050919050565b60006020820190508181036000830152612f7381612b3e565b9050919050565b60006020820190508181036000830152612f9381612b61565b9050919050565b60006020820190508181036000830152612fb381612b84565b9050919050565b60006020820190508181036000830152612fd381612ba7565b9050919050565b60006020820190508181036000830152612ff381612bca565b9050919050565b6000602082019050818103600083015261301381612bed565b9050919050565b6000602082019050818103600083015261303381612c10565b9050919050565b6000602082019050818103600083015261305381612c33565b9050919050565b6000602082019050818103600083015261307381612c56565b9050919050565b6000602082019050818103600083015261309381612c79565b9050919050565b600060208201905081810360008301526130b381612c9c565b9050919050565b600060208201905081810360008301526130d381612cbf565b9050919050565b600060208201905081810360008301526130f381612ce2565b9050919050565b600060208201905061310f6000830184612d05565b92915050565b600060408201905061312a6000830185612d05565b6131376020830184612d05565b9392505050565b600081519050919050565b600081519050919050565b600081905092915050565b600082825260208201905092915050565b600061317b826132fb565b9150613186836132fb565b9250827fffffffffffffffffffffffffffffffffffffffffffffffffffffffffffffffff038211156131bb576131ba6133ec565b5b828201905092915050565b60006131d1826132fb565b91506131dc836132fb565b9250826131ec576131eb61341b565b5b828204905092915050565b6000613202826132fb565b915061320d836132fb565b9250817fffffffffffffffffffffffffffffffffffffffffffffffffffffffffffffffff0483118215151615613246576132456133ec565b5b828202905092915050565b600061325c826132fb565b9150613267836132fb565b92508282101561327a576132796133ec565b5b828203905092915050565b6000613290826132db565b9050919050565b60006132a2826132db565b9050919050565b60008115159050919050565b60008190506132c3826137b5565b919050565b60008190506132d6826137c9565b919050565b600073ffffffffffffffffffffffffffffffffffffffff82169050919050565b6000819050919050565b600061331082613395565b9050919050565b600061332282613329565b9050919050565b6000613334826132db565b9050919050565b60006133468261334d565b9050919050565b6000613358826132db565b9050919050565b600061336a826132b5565b9050919050565b600061337c826132c8565b9050919050565b600061338e826132fb565b9050919050565b60006133a0826133a7565b9050919050565b60006133b2826132db565b9050919050565b60005b838110156133d75780820151818401526020810190506133bc565b838111156133e6576000848401525b50505050565b7f4e487b7100000000000000000000000000000000000000000000000000000000600052601160045260246000fd5b7f4e487b7100000000000000000000000000000000000000000000000000000000600052601260045260246000fd5b7f4e487b7100000000000000000000000000000000000000000000000000000000600052602160045260246000fd5b6000601f19601f8301169050919050565b7f43726f776473616c653a20424c41434b4c495354454400000000000000000000600082015250565b7f43726f776473616c653a205052455f49434f5f454e4445440000000000000000600082015250565b7f4f776e61626c653a206e6577206f776e657220697320746865207a65726f206160008201527f6464726573730000000000000000000000000000000000000000000000000000602082015250565b7f43726f776473616c653a204e4f545f57484954454c4953544544000000000000600082015250565b7f43726f776473616c653a205052455f49434f5f4e4f545f535441525445440000600082015250565b7f49434f5f524541434845445f4c494d4954000000000000000000000000000000600082015250565b7f416464726573733a20696e73756666696369656e742062616c616e636520666f60008201527f722063616c6c0000000000000000000000000000000000000000000000000000602082015250565b7f43726f776473616c653a2049434f5f4e4f545f53544152544544000000000000600082015250565b7f43726f776473616c653a205a45524f5f414d4f554e5400000000000000000000600082015250565b7f43726f776473616c653a205a45524f5f41444452455353000000000000000000600082015250565b7f43726f776473616c653a204d41585f474f414c5f524541434845440000000000600082015250565b7f4f776e61626c653a2063616c6c6572206973206e6f7420746865206f776e6572600082015250565b7f416464726573733a2063616c6c20746f206e6f6e2d636f6e7472616374000000600082015250565b7f43726f776473616c653a2049434f5f454e444544000000000000000000000000600082015250565b7f5361666545524332303a204552433230206f7065726174696f6e20646964206e60008201527f6f74207375636365656400000000000000000000000000000000000000000000602082015250565b7f5265656e7472616e637947756172643a207265656e7472616e742063616c6c00600082015250565b7f50524549434f5f524541434845445f4c494d4954000000000000000000000000600082015250565b600281106137c6576137c561344a565b5b50565b600381106137da576137d961344a565b5b50565b6137e681613285565b81146137f157600080fd5b50565b6137fd816132a9565b811461380857600080fd5b50565b613814816132fb565b811461381f57600080fd5b5056fea264697066735822122054036f5298c56573ac397b068a816251eacb7719b88134214778dd7260351a3b64736f6c63430008020033",
  "linkReferences": {},
  "deployedLinkReferences": {}
}